:020000040800F2
:10400000FFFF012055800108590901085B090108DB
:10401000890A0108A10A0108B90A01080000000084
:10402000000000000000000000000000110603086E
:10403000D10A010800000000B1060308490901087F
:10404000D5800108D5800108D5800108D5800108F8
:10405000D5800108D580010889E10008A9E10008A0
:10406000C9E10008E9E100080DE20008F1F20008EA
:10407000D580010815F30008D5800108D580010816
:10408000F531010815160108D5800108D580010811
:10409000D5800108D5800108D580010835E20008E7
:1040A000D5800108D5800108D5800108D580010898
:1040B000D5800108D5800108D5800108E5F2000807
:1040C000D9F20008D5800108D5800108D580010803
:1040D000D5800108D58001087516010879120108FC
:1040E00011E30008D5800108D5800108D5800108BA
:1040F000D580010805DF0008D5800108D5800108BA
:10410000D5800108D5800108D5800108D580010837
:10411000D5800108D5800108D5800108F97F010804
:10412000E5860008891D0108D5800108D5800108B1
:10413000D5800108D5800108D5800108D580010807
:10414000D5800108D5800108D58001084D090108F6
:104150007D860008D5800108391D0108351D01083C
:1041600009F30008FDF20008D5800108D580010898
:10417000D5800108D5800108D5800108D5800108C7
:08418000D5800108D58001087B
:1041C00038B510EE105A25F00044B4F1A14FF0EECE
:1041D000407A0BDBB4F1FF4F56DCDFED4E7A9FEDFA
:1041E0004E0A002DC8BFB0EE670A38BD4B4B9C424B
:1041F0005CDCB4F1445F4ADB4FF0FF3267EEA76A44
:10420000DFED471ADFED472A9FED472A9FED473A3A
:10421000DFED473A9FED474ADFED474A9FED475AAA
:10422000DFED475A9FED470A9FED476A26EEA67AD3
:10423000531CE7EE212AA7EE023AE2EE873AA3EEFC
:10424000074AE3EE874AA4EE075AE4EE875AA5EE42
:10425000070AA5EE876A20EE070AA6EE260A20EED8
:10426000270A20D0394B03EB8203D3ED046A93ED88
:10427000007A30EE660A002D70EE677A37EE670A34
:10428000B3DAB1EE400A38BD30EE000A38BD9FED1A
:10429000307A30EE077AF7EE006AB4EEE67AF1EEA5
:1042A00010FAA9DD38BD37EEC00A38BD00F09EF81F
:1042B000284B9C420FDCA3F5D0039C4220DCF0EE9F
:1042C000007ABFEE007AA0EE277A002230EE270AAD
:1042D000C7EE007A92E7204B9C420BDCF7EE087A9F
:1042E000B7EE007AA0EE277A022230EE670AC0EE1F
:1042F000077A83E7BFEE007AC7EE007A03227DE7F4
:10430000F7EE007A30EE677A30EE270A0122C7EE28
:10431000007A73E7DB0FC93FDB0FC9BFFFFFDF3E4A
:10432000D769853C59DA4B3D21A215BD6BF16EBDB5
:10433000356B883D95879DBD6E2EBA3D388EE3BDA9
:104340002549123ECDCC4CBEABAAAA3EFC4D03087B
:10435000CAF24971FFFF973FFFFF1B4000B510EE07
:10436000103A204A23F00043934283B019DDB3F1A1
:10437000FF4F04DB30EE400A03B05DF804FB6846F3
:1043800001F0BCF900F00300012811D002281FD071
:10439000B8B10120DDED010A9DED000A01F0B2FE89
:1043A000EAE7DFED110A01F0F9FA03B05DF804FB6A
:1043B000DDED010A9DED000A01F0A4FEB1EE400A18
:1043C000DAE7DDED010A9DED000A01F0E7FAD3E737
:1043D000DDED010A9DED000A01F0E0FAB1EE400AC0
:1043E000CAE700BFD80F493F0000000010EE103AA6
:1043F00023F0004300EE103A704700BF08B52DEDE2
:10440000028BB0EE608AF0EE408A00F033F820B9FB
:10441000B0EE480ABDEC028B08BDB0EE480A00F0D1
:1044200029F820B1F4EEC88AF1EE10FAF0DDB0EE12
:10443000680ABDEC028B08BD08B52DED028BB0EE0D
:10444000608AF0EE408A00F015F820B9B0EE480A14
:10445000BDEC028B08BDB0EE480A00F00BF820B1AD
:10446000F4EEC88AF1EE10FAF0D5B0EE680ABDECB1
:10447000028B08BD10EE103A33F000400ED0A0F5CC
:104480000003B3F1FE4F0DD3074B421E9A4207D9EA
:10449000A0F1FF40B0FA80F0400970470220704759
:1044A0000320704704207047FEFF7F0000B510EE28
:1044B000103A214A23F00043934283B01ADDB3F14E
:1044C000FF4F04DB30EE400A03B05DF804FB6846A2
:1044D00001F014F900F00300012813D0022820D0C5
:1044E000B8B1DDED010A9DED000A01F057FAB1EE19
:1044F000400AE9E70020DFED110A01F003FE03B0F6
:104500005DF804FBDDED010A9DED000A01F046FABD
:10451000DAE70120DDED010A9DED000A01F0F2FD70
:10452000D2E70120DDED010A9DED000A01F0EAFD70
:10453000B1EE400AC8E700BFD80F493F00000000B5
:1045400000B510EE103A134A23F00043934283B0B3
:1045500018DDB3F1FF4F04DB30EE400A03B05DF825
:1045600004FB684601F0CAF8400000F00200C0F108
:104570000100DDED010A9DED000A01F00BFE03B024
:104580005DF804FB0120DFED040A01F003FE03B037
:104590005DF804FBDA0F493F0000000008B52DED7F
:1045A000028BB0EE408A00F073F9134B93F90030A0
:1045B0000133F0EE408A0FD0B4EE488AF1EE10FAE3
:1045C0000AD6B0EE480AFFF711FFF7EE007AB4EE14
:1045D000E70AF1EE10FA04DCB0EE680ABDEC028BDB
:1045E00008BD02F0D7F8BDEC028B2123036003481D
:1045F000BDE8084001F000BF00000020D4CF030850
:1046000008B52DED028BB0EE408A00F061FA134B35
:1046100093F900300133F0EE408A0FD0B4EE488AAF
:10462000F1EE10FA0AD6B0EE480AFFF7DFFEF7EE19
:10463000007AB4EEE70AF1EE10FA04DCB0EE680A94
:10464000BDEC028B08BD02F0A5F8BDEC028B212366
:1046500003600348BDE8084001F0CEBE0000002022
:10466000D4CF030800F030BB08B52DED028BB0EEBF
:10467000408A00F0E7FB164B93F900300133F0EE6F
:10468000408A12D0B0EE480A01F068FE68B1DFED52
:10469000117AB4EEE78AF1EE10FA12DCDFED0E7A51
:1046A000B4EEE78AF1EE10FA04D4B0EE680ABDEC7D
:1046B000028B08BD02F06EF82223DFED088A03604A
:1046C000F3E702F067F822230360DFED058AECE7E9
:1046D000000000208071B142B5F1CFC2000000009F
:1046E0000000807F08B52DED028BB0EE408A00F00F
:1046F0009BFC144B93F90030013314D0B4EE488A7C
:10470000F1EE10FA0FD6B5EEC08AF1EE10FA0AD823
:10471000B5EE408AF1EE10FA08D102F03BF8222300
:104720009FED090A0360BDEC028B08BD02F032F870
:10473000BDEC028B212303600448BDE8084001F072
:104740005BBE00BF00000020000080FFD4CF030844
:1047500008B52DED048BF0EE408AB0EE608A00F0D3
:10476000C3FC474B93F900300133B0EE409A1FD0A1
:10477000B4EE488AF1EE10FA1AD6F4EE688AF1EE39
:1047800010FA59D6DFED3F9AF4EE698AF1EE10FA8D
:1047900013D1B4EE698AF1EE10FA29D0B0EE480ACE
:1047A00001F0DCFD20B1B4EEE98AF1EE10FA4DD44F
:1047B000B0EE490ABDEC048B08BD01F0CFFDF0B1AD
:1047C000B5EE409AF1EE10FAF2D1B0EE680A01F0BF
:1047D000C5FD0028ECD0B0EE480A01F0BFFD00286E
:1047E000E6D001F0D7FF222303609FED269ADFE792
:1047F000B7EE009AB0EE490ABDEC048B08BDB0EEEE
:10480000680A01F0ABFD0028DAD0B0EE480A01F0EA
:10481000A5FD0028D4D0B4EE499AF1EE10FA28D6BE
:1048200001F0B8FFF5EEC08A2223F1EE10FA036022
:1048300013D49FED159ABBE7B5EE408AF1EE10FA5E
:10484000F7EE007A08BFB0EE679AB1E701F0A2FF79
:10485000212303609FED0D9AAAE7B0EE480A01F00C
:10486000D1FDB4EE480AF1EE10FAE2D09FED079ABE
:104870009EE701F08FFF212389EEA99A036097E755
:1048800000000020000000000000807F000080FF8A
:1048900008B510EE102A22F00043B3F17E5F2DED33
:1048A000028B12D00ADCB3F17C5F19DAB3F10C5F32
:1048B00068DCBDEC028B9FED750A08BD70EE407A96
:1048C00087EEA70ABDEC028B08BDBDEC028B9FED05
:1048D000700ADFED707A002AD8BFB0EE670A08BD13
:1048E000002AC0F28C80F7EE008A38EEC00AB6EEDD
:1048F000008A20EE088AB0EE480A01F04BF89FEDDE
:10490000667ADFED663ADFED664A9FED663A9FED27
:10491000664ADFED665A9FED665ADFED666A9FEDE7
:10492000666ADFED667AE8EE073AA8EE034AE3EE40
:10493000884AA4EE085AE4EE885A10EE103AE5EEE2
:10494000886A23F47F6323F00F03A5EE086A07EE5D
:10495000103AE6EE887AF0EE485AE6EE088AE7EE7C
:10496000475A27EE888A30EE076AC8EE286ABDECFF
:10497000028BC5EE867AE0EE267A37EE870A30EEB5
:10498000000A08BD20EE007ADFED431ADFED432A6E
:10499000DFED433A9FED432A9FED433ADFED435A63
:1049A0009FED434ADFED434A9FED435ADFED436AF3
:1049B0009FED436ADFED437AE7EE212ABDEC028BDF
:1049C000E2EE873AA7EE023AE3EE875AA3EE074AF1
:1049D000E5EE874AA4EE075AE4EE876AF7EE005A3E
:1049E000E5EE075A26EE877AC7EE256AB0EE467ADC
:1049F000A0EE667A30EE470A37EEC00A08BDB7EE81
:104A0000007A30EE070AF6EE007A60EE277ADFEDE4
:104A1000222ADFED223ADFED224A9FED223A9FED76
:104A2000224ADFED225A9FED225ADFED226A9FEDE6
:104A3000226A9FED228AE7EEA23AA7EE834AE3EECE
:104A4000A74AA4EE275AE4EEA75AA5EE276AE5EE98
:104A5000A76AA6EE277AA6EEA78AF0EE478A28EE86
:104A6000278AB0EE670A00F095FFC8EE286A9FED2E
:104A7000167ADFED167AA0EE267AF0EE006A37EEAF
:104A8000000AE0EE667AB0EE670A1BE7DB0FC93F6B
:104A900000000000DB0F494008EF1138047F4F3A57
:104AA000461124BD2EC69D3D613330BFA80A4E3E3F
:104AB0002D57014090B0A6BE39D119C0ABAA2A3EED
:104AC0006821A233DA0FC93F6821A2B3DA0F494047
:104AD00038B510EE105A25F00044B4F17E5F2DED8C
:104AE000048B00F0828079DCB4F17C5F0EDAB4F1E3
:104AF000485F80F29680DFED647A70EE277AB7EE39
:104B0000007AF4EEC77AF1EE10FA64DCFFF76EFC7F
:104B1000F7EE007A37EEC00AB6EE008A20EE088A79
:104B20009FED5A3A9FED5A4ADFED5A3ADFED5A4A65
:104B30009FED5A5ADFED5A5A9FED5A6A9FED5A7A05
:104B4000DFED5A6ADFED5A8AA8EE034AE8EE234AFF
:104B5000A4EE085AE4EE885AA5EE086AA5EE887A13
:104B6000E6EE086AE7EE087AE6EE888AB0EE480AD2
:104B7000B0EE679A00F00EFF4E4B9C4268EE888ABA
:104B800040DC10EE103A23F47F6323F00F0307EEAE
:104B9000903AB1EE676AA6EE278A70EE277AC8EEE1
:104BA000895A88EE275A9FED447ADFED447AF0EE79
:104BB000006AA5EE667A30EE000AB0EE675AA6EEFD
:104BC000265A90EE257A37EE450A37EEC00A002DB8
:104BD000D8BFB1EE400ABDEC048B38BDBDEC048BF0
:104BE00070EE407A87EEA70A38BDDFED337A9FED8D
:104BF000347A60EE277ABDEC048BE0EE077AB0EEF3
:104C0000670A38BDC8EE896A9FED2E7ADFED2C7AEF
:104C1000A0EE260AF0EE006AA0EE267A37EEC70A6A
:104C2000D5E760EE007ADFED192ADFED193ADFED06
:104C30001B4A9FED183A9FED184ADFED1A6A9FED67
:104C4000185ADFED1A5A9FED186A9FED197AE7EEB0
:104C5000A23ABDEC048BE3EEA74AA7EE834AE4EE4A
:104C6000A76AA4EE275AE6EEA75AA5EE276AA5EE94
:104C7000A77AF7EE006AE6EE276A67EE277A87EEF4
:104C8000A67AA0EE070A38BDCAF2497108EF1138BA
:104C9000047F4F3A2EC69D3D613330BF461124BD7F
:104CA0002D570140A80A4E3E39D119C090B0A6BE7A
:104CB000ABAA2A3E9999793F2EBD3BB3DB0F493F02
:104CC000DB0FC93F2EBD3B3310B582B0CDED010ADD
:104CD000019B23F00042B2F1FF4FF0EE407A19DC65
:104CE00010EE100A20F00041B1F1FF4F12DCB3F1D9
:104CF0007E5F51D09C1704F0020444EAD07479B965
:104D0000022C36D09FED440A032C18BFB0EE670A80
:104D100002B010BD9DED017A37EE270A02B010BD3A
:104D2000F2B1B2F1FF4F27D0B1F1FF4F52D08A1A42
:104D3000D2153C2A35DC002B43DA3C3241DA9FEDB8
:104D4000370A012C58D0022C4DD0002CE6D0DFEDD4
:104D5000347A9FED347A70EE277A37EEC70ADDE7B2
:104D60009FED310ADFED317A0028B8BFB0EE670A57
:104D7000D4E79FED2C0AD1E7B1F1FF4F14D0022CFC
:104D8000F7D0032C3FD0DFED2A7A9FED240A012CC7
:104D900008BFB0EE670AC1E702B0BDE81040FFF7F8
:104DA0000FBA9FED210ACCE7022C32D0032C2DD074
:104DB000DFED207A9FED200A012C08BFB0EE670AD4
:104DC000ACE79DED010A87EE800AFFF70FFBFFF7C6
:104DD000F7F9B6E7DFED147A9FED140A0028A8BFB3
:104DE000B0EE670A9AE7DFED0E7A9FED0E7A70EE6D
:104DF000277A37EE670A91E710EE103A03F1004385
:104E000000EE103A8AE79FED040A87E79FED0B0A50
:104E100084E79FED0B0A81E7DB0F49C0000000002B
:104E20002EBDBB33DB0F4940DB0FC93FDB0FC9BFD2
:104E300000000080DB0F49BFDB0F493FE4CB16C009
:104E4000E4CB164010EE103A23F00042B2F1FF4FCF
:104E500054D84FEAD37100F097806348834250DC06
:104E6000002BC0F28A80614B9A424FD9604B9A4224
:104E7000604B00F29C8003EB8103D3ED004AD3ED3D
:104E8000027A70EE644AC1F101035B1A34EEE70A5C
:104E90009FED594A9FED595ADFED595A9FED596AD6
:104EA000DFED596A20EE007AA7EE045AE5EE075AC4
:104EB000A5EE876AE6EE076AB0EE406AA6EEC76A1C
:104EC000B0EE467A20EE066A002B49D0F0EE006A7A
:104ED00036EEC77AB7EE000AC6EE076A13F17D0F09
:104EE00077EEE67A77EEE47A30EE670A53DB10EE7F
:104EF000102A02EBC35300EE103A704730EE000A5E
:104F000070479FED420A20EE000A7047B2F1465FFB
:104F10000AD2DFED3E7A70EE277AB7EE007AF4EE31
:104F2000C77AF1EE10FA5BDC60EE007A9FED325A40
:104F3000DFED325A9FED326ADFED326A9FED327A51
:104F4000E7EE855AA7EEA56AE7EE866AA7EEA67A8F
:104F5000F0EE406AE7EEC76A20EE266AB0EE667AA7
:104F6000F0EE007A37EE677AF7EE006AC6EE077A5F
:104F700037EEC00A36EEC00A7047254B9A427FF6DC
:104F800072AF9FED240A7047DFED227A002918BF27
:104F9000B0EE670A704710EE102A643302EBC35379
:104FA000DFED1D7A00EE103A20EE270A704703EB82
:104FB0008103DFED1A7A93ED047A9FED196ADFED34
:104FC000196AA0EE277AF0EE404AFDEEC77A17EE96
:104FD000903AF8EEE77AE7EEC64A67EEA67A55E72A
:104FE00030EE070A704700BF1772B1421872B13E27
:104FF0009115853F1C4E03084CBB31330EEADDB5DD
:1050000055B38A38610B36BBABAA2A3ECAF2497146
:10501000B5F1CF42000000000000800D3BAAB83F70
:105020008071313FD1F7173708B510EE103A33F0E1
:1050300000422DED028B2AD0002B31DBB3F1FF4F64
:1050400040DAB3F5000F34DB0021DA157F3A0A4469
:10505000D10FC1F17F000A44C3F3160307EE902A73
:1050600043EAC05300EE103AB8EEE78A01F098FA2E
:10507000DFED177ADFED176A9FED177A20EE270A2A
:10508000A8EE260AA8EE070ABDEC028B08BDBDEC0F
:10509000028B9FED127ADFED127A87EE270A08BDA8
:1050A000BDEC028B70EE407A9FED0D7A87EE870A99
:1050B00008BDDFED0C7A60EE277A6FF0180117EE6D
:1050C000903AC2E7BDEC028B30EE000A08BD00BF8B
:1050D000D95BDE3EDB27543580209A3E000000CCB1
:1050E000000000000000004C2DE9F0472DED028B80
:1050F00082B0CDED000A009C8DED010A34F000472E
:1051000014D0DDF8048028F00046B6F1FF4F07DD2B
:10511000BD4802B0BDEC028BBDE8F04701F06CB9B0
:10512000B7F1FF4F09DDB6F17E5FF1D1B7EE000AAE
:1051300002B0BDEC028BBDE8F087B8F1000FC0F201
:10514000F9804FF00009B7F1FF4F00F00681B7F189
:105150007E5F00F02C81B4F1804F00F04181019D11
:10516000DDF800A0B4F17C5F00EE105A40F002813F
:10517000B8F1000F80F23981FFF738F9B6F1FF4F2F
:1051800000F00A81002E00F00381B6F17E5F00F08E
:10519000F9804FEAD873013B59EA030200F02C81F1
:1051A000B7F19A4F40F35281984A964240F3638296
:1051B000974A964200F30081F7EE007A30EE670AD4
:1051C000DFED946ADFED947A9FED945A9FED946A37
:1051D000F1EE405AB5EE007AE5EE876AB6EE007A57
:1051E000A6EEC07A60EE006A27EE267A67EEC77AEE
:1051F000E0EE057AF0EE676AE0EE066A16EE902AB7
:1052000022F47F6222F00F0207EE102AA5EE867AC2
:1052100006EE902A77EEC77A24F47F6424F00F0418
:1052200007EE10AA06EE104A67EE877A37EE466A56
:1052300007EE104AE6EE267A09F1FF3959EA030330
:1052400026EE877AB7EE000A77EE876ABFEE006A2D
:1052500016EE902A0CBFB0EE468AB0EE408A002AC5
:1052600022F0004340F3BD81B3F1864F00F3FC818F
:1052700000F0EF81B3F17C5F00F3BF8100210846AD
:1052800022F47F6323F00F0306EE103ADFED656A28
:10529000DFED655A9FED653ADFED653A9FED652AD2
:1052A0009FED654ADFED654A9FED655A36EE477A18
:1052B000F0EE002A77EEC77A26EE267AA7EEA57AD8
:1052C000F7EE005AF0EE477AA6EE037A67EE076A29
:1052D000F0EE471AE6EE431AB0EE636AA6EE826A73
:1052E00077EEE17AA6EE264AE7EE277AE4EE264A42
:1052F000A4EEA65AB0EE456AB0EE475AA6EE665A3C
:10530000F0EE456A36EEE26A27EE055AC5EE066A09
:1053100076EEE77A37EEC77A35EEC70A10EE103A26
:105320000B44B3F5000FC0F2BE8100EE103A20EE40
:10533000080AFDE6B7F1974F19DAB7F17E5F09DB8E
:10534000FB15C3F1960347FA03F202FA03F3BB42DB
:1053500000F042814FF00009F9E6B6F17E5F3FF4BC
:10536000E5AE2FDD002C2ADB9DED000AE0E64FF0D4
:105370000209E8E6FFF73AF8B6F1FF4F02D0002E37
:105380007FF403AF002CBCBFF7EE007A87EE800AF3
:10539000B8F1000FBFF6CCAEA6F17E5656EA09036F
:1053A00040F0138170EE407A87EEA70AC0E6002C29
:1053B0000FDB9DED010ABBE6002C00F35F819FED42
:1053C000210AB5E6002CFADADDED007AB1EE670AC3
:1053D000AEE69DED017AF7EE007A87EE870AA7E642
:1053E000DDED017A27EEA70AA2E602B0BDEC028B42
:1053F000BDE8F04700F0CEBA07EE905A77EEE77AB4
:1054000087EEA70A94E600BFD4CF0308F7FF7F3FDB
:105410000700803FABAAAA3E3BAAB83F70A5EC3676
:1054200000AAB83F8CBEBF351872313F0072313FC1
:105430000EEADDB54CBB313355B38A38610B36BB50
:10544000ABAA2A3E000000000000804B18F0FF4F7E
:1054500040F0FD805FED047A60EE277A6FF017026E
:1054600017EE906A9148F115C6F316067F39864209
:10547000114446F07E5240F3E2808D48864240F36C
:1054800002819FED8C5A0131A2F50002F0EE453AFF
:105490000020B7EE006A06EE902A76EE867AB7EE26
:1054A000007A87EE278A521042F0005202F58022DD
:1054B000024436EEC67A07EE902A27EE084A77EEC7
:1054C000C65ADFED7D8A9FED7D0A7D4ADFED7D1AAC
:1054D000DFED7D0A9FED7D1A9FED7D2ADFED7D2AB0
:1054E0009FED7D3A24EE046A14EE100AA6EE280A17
:1054F000104076EEE56AF0EE615A04EE900AE0EEB6
:10550000065AF1EE641AA1EEA77AF0EE607AE5EEA3
:10551000867AA1EEA67AF0EE415AE7EE865A67EE59
:10552000086AB0EE427AA5EE867A74EE247A26EE08
:10553000066A67EEA67AF0EE085AE6EE077AB0EE53
:10554000657AA4EEA47A9FED652A37EE276A07EE06
:10555000101A16EE101A114006EE101A76EE655A61
:10556000B8EEC77AE1EEA45A77EEE57A67EE847A70
:10557000E6EE867AF0EE675AE4EE865A15EE901A59
:10558000114006EE901AE1EE866A05EE901A77EE6B
:10559000E67A67EEA27AE5EE837A77EEA37AF0EE0A
:1055A000676AE5EE826A76EE856A76EE876A16EEBF
:1055B000901A114006EE901A36EEC77A37EE457A09
:1055C000A5EEC27A77EEC77A26E6B9F1010F7FF42D
:1055D000AFADB1EE400AABE502F00102C2F1020943
:1055E000B5E53F498B4257DC7FF444AE76EEC76A9F
:1055F000F4EEE76AF1EE10FA4EDADB154FF4000133
:105600007E3B41FA03F31344C3F3C751354C7F3952
:105610000C41C3F3160023EA040306EE903A37EE7A
:10562000667AC1F1170140F400000841002A77EEC4
:10563000876AB8BF4042C10516EE902A20E69FED6A
:105640001D5A0020F0EE453AB7EE006A23E700222B
:1056500008E79FED256A76EEC76A37EE866AB4EEF4
:10566000E66AF1EE10FAC8DDDFED207A28EE270AAF
:1056700020EE270A5CE5002CBFF6A1AE9FED1B0AC9
:1056800020EE000A54E59FED1A5ADFED1A3A4FF466
:105690000010B7EE086AFEE6DFED177A28EE270A5B
:1056A00020EE270A44E500F009FF40E671C41C0023
:1056B000D6B35D000000000042F1533E55326C3E0F
:1056C00000F0FFFF05A38B3EABAAAA3EB76DDB3E01
:1056D0009A99193F4F38763FA0C39D360038763FE0
:1056E00000001643FFFF7F003CAA3833CAF249711D
:1056F00000C0153FDCCFD1356042A20D70B510EE71
:10570000103A964A23F00044944286B0054668DD7C
:10571000934A944210EE106A1ADC002B24F00F0416
:10572000DFED907A904A40F3F280944270EE677A0F
:1057300066D09FED8E7A77EEC76A012077EEE67A23
:10574000C5ED006A77EEC77AC5ED017A06B070BD87
:10575000874A944267DDB4F1FF4F49DAE215863A91
:10576000A4EBC25307EE903ABDEEE77ADFED816A13
:10577000B8EEC77A77EEC77A8DED037A67EEA67A30
:10578000BDEEE77AB8EEC77A77EEC77A8DED047A88
:1057900067EEA67AF5EE407AF1EE10FACDED057AD5
:1057A00040F0A280B5EE407AF1EE10FA14BF022369
:1057B0000123714901910221009103A8294600F0BB
:1057C0006FF9002EC2DA95ED007AD5ED017AB1EECF
:1057D000477AF1EE677A404285ED007AC5ED017AAD
:1057E000B4E7002285ED000A4260002006B070BDDB
:1057F00070EE407A0020C5ED017AC5ED007AA5E78C
:10580000DFED5E6A9FED5E7A77EEE67A012077EE55
:10581000C76A77EEE67AC5ED006A77EEC77AC5ED1E
:10582000017A06B070BDFEF7E1FDDFED566ADFEDEF
:105830004D5A9FED4E7AF6EE007AE0EE267AFDEEB6
:10584000E77A17EE900AF8EEE76A1F28B1EE666A6B
:10585000A6EE250A66EE877A1EDC421E4A4B53F8F6
:10586000223024F0FF029A4230EE677A16D085ED9E
:10587000007A30EE470A002E30EE670A85ED010A05
:10588000BFF664AFB1EE477AB1EE400A85ED007A1B
:1058900085ED010A404259E730EE677A17EE103A7B
:1058A000E415C3F3C753E31A082BE0DDDFED337AC9
:1058B0009FED337AF0EE405AE6EE275A30EE650A55
:1058C000A6EE270AF0EE407AD6EE877A35EEE77A32
:1058D00017EE103AC3F3C753E41A192C06DC85ED12
:1058E000007AB0EE650AC4E7032362E79FED277AEA
:1058F0009FED275AB0EE650AA6EE070A75EEC07A4C
:10590000E6EE077AD6EE857A30EE677AAFE7944214
:1059100070EE277A0ED09FED157A77EE876A4FF0FA
:10592000FF3077EEE67AC5ED006A77EE877AC5ED4F
:10593000017A0BE7DFED116A9FED117A77EEA67A17
:105940004FF0FF3077EE876A77EEE67AC5ED006AB2
:1059500077EE877AC5ED017AF8E600BFD80F493FA8
:10596000E3CB1640800FC93FD00FC93F43443537C2
:10597000800F494300008043B44E0308004435378C
:1059800008A3852E84F9223F344E030800A3852EF8
:1059900032318D24B1EEC00A704700BF10EE103ACC
:1059A00023F00043B3F1485F2CDAFDEEC07A17EE26
:1059B000903A002B60D020EE007ADFED314A9FED67
:1059C000315ADFED315A9FED316ADFED317ADFED8B
:1059D000316AA7EE245AE7EE055AA7EE256AE7EEEC
:1059E000067AE7EE276A66EE876A60EEC00AB6EED0
:1059F000006AE7EE260AF7EE007AD7EE060A37EEDF
:105A0000E00A704720EE007ADFED1D4A9FED1D5A37
:105A1000DFED1D5A9FED1D6ADFED1D7ADFED1D6A7A
:105A20001D4AA7EE245A9342E5EE075AA5EE876A6F
:105A3000E6EE077AE7EE876A66EE876AD5DD174AF3
:105A4000934214DC03F17F4307EE903AB7EE006A0D
:105A500036EE676A60EEC00AF6EE005AE7EE260AF6
:105A6000D7EE257A77EEE07A36EE670A7047B6EE23
:105A7000076AF5EE027AEDE7B7EE000A704700BF5D
:105A80004ED747ADF6740F317CF293B4010DD03789
:105A9000610BB6BAABAA2A3D9999993E0000483FDE
:105AA0002DE9F04F2DED048BDBB0D64C689D0791AE
:105AB000111D54F8255004930992814603F1FF38D3
:105AC000C0F25782D31E44BF13460433DB10039346
:105AD0000133DB000893DDE908239B1A0693039B3F
:105AE00015EB0801A3EB080316D401319FEDC67A2C
:105AF000699819441EAA002BA4BF50F8234007EE52
:105B0000904A03F10103ACBFF8EEE77AF0EE477A72
:105B10008B42E2EC017AEED1049B002D4FEA830C1C
:105B20004FEA850A1DDB1EAB03EB0C0447AB09EB08
:105B30000C0103EB0A0646A8B8F1000FDFEDB27ABC
:105B400009DB22464B46F3EC016A32ED017A8B42C7
:105B5000E6EE877AF7D1E0EC017AB04204F1040472
:105B6000EAD1AAF108030AAFFB180593AB4609ABCB
:105B700001959FEDA79ADFEDA58A069D09EB0C0420
:105B80009A4446AE4FEA8B015AAB0B44BBF1000F6F
:105B900013ED140A16DD06EB8B033A4660EE097A24
:105BA000B0EE407AFDEEE77A73ED016AF8EEE77A3F
:105BB000B342A7EEE87A37EEA60ABDEEC77AA2ECAA
:105BC000017AEBD12846029100F078FCB0EE408AD1
:105BD000B4EE000A28EE000A00F0CAFBF2EE007AEA
:105BE000A0EE678A002D0299FDEEC89AF8EEE97AD8
:105BF00038EE678A75DD0BF1FF3CC5F1080357F8F5
:105C00002C2042FA03F000FA03F3D31A47F82C30A1
:105C1000C5F1070219EE90CA43FA02F28444002A41
:105C200009EE90CA66DCB5EE408AF1EE10FA40F05B
:105C3000A380019B0BF1FF3C63450EDC0BF180411F
:105C4000013907EB8101002051F80439514540EA40
:105C50000300F9D1002840F0EE80019B013B57F88A
:105C60002330002B40F0E280059B012053F80429EB
:105C70000130002AFAD00BF1010358449C46039AE4
:105C800003EB020E049A1EA95A440EF1804E01EB5A
:105C9000820269990EF1FF3E01EB8E0E06EB830B3B
:105CA0005EF8043F9FED587A07EE903AF8EEE77AF7
:105CB0001146B8F1000FE1EC017A09DB4B4601E037
:105CC00072ED017AF3EC016AA342A6EEA77AF7D14E
:105CD0000CF1010C8445ABEC017A0A46E0DD834609
:105CE00050E740F099800BF1FF3357F82320121250
:105CF000002A98DD19EE903ABBF1000F03F1010381
:105D000009EE903A40F3C4813868002861D1BBF1B4
:105D1000010F0BD0BE464FF0010C5EF8040F0CF1E2
:105D20000103002858D19B459C46F6D1002D0CDD7F
:105D3000012D00F01581022D07D10BF1FF3157F82D
:105D4000213003F03F0347F82130022A7FF46BAF84
:105D5000B7EE000A30EE488A00283FF464AF2846C8
:105D6000029200F0ABFB38EE408A029AB5EE408A10
:105D7000F1EE10FA3FF45DAF9046DDE90832B0EE87
:105D8000480A981A019D00F099FB9FED207AB4EE25
:105D9000C70AF1EE10FAC0F27D81DFED1D7A069B95
:105DA00060EE277A0833FDEEE77A0693F8EEE77A9D
:105DB0000BF10103A7EEC70AFDEEE77ABDEEC00ABC
:105DC00010EE102A47F82B2017EE902A47F82320D0
:105DD00046E001234FF0000CC0F580709B4547F86A
:105DE0002C000CDD57F82300394407EB830300E057
:105DF0001868C0F1FF0043F8040B8B42F8D1012072
:105E000094E700BFCC51030800000000000080436D
:105E10000000803B0000C93FF6EE007AB4EEE78A4E
:105E2000F1EE10FA80F2AA800022FCE60BF10103E9
:105E30009C46184623E70699019D904657F82C206A
:105E40000839634606915AB90BF18042023A07EBD2
:105E5000820252F80409013B08390028F9D0069162
:105E600006980193B7EE000A00F028FB019B002B77
:105E7000C0F22F819E0046AA06F1040C1FED1C7A89
:105E80001644311D07EB0C0272ED017AF8EEE77A49
:105E9000BA4267EE807A20EE070A61ED017AF3D10B
:105EA0000DF1C80E002D77464FF000041FED276A54
:105EB0001DDB9248DFED927A3146B0EE467A002241
:105EC00003E0A24208DCB0EC017AF1EC016A013295
:105ED0009542E6EE877AF4DA9C42E7EC017AA6F185
:105EE000040604F101020CD0002D1446E1DADFEDC6
:105EF000847A9C42E7EC017AA6F1040604F10102DF
:105F0000F2D1689A032A22D8DFE802F0B19F9F4AB3
:105F1000DFED7B7A9DED327A424637EE677A002AD2
:105F200040F0C080079A002BC2ED007A0CDD33A947
:105F30000122F1EC017A0132934237EE277AF8DA46
:105F400043460BB1B1EE477A079B83ED017A19EE18
:105F5000903A03F007005BB0BDEC048BBDE8F08F16
:105F60000BF1FF3157F8213003F07F0347F8213060
:105F7000EBE60823089300230393ACE519EE903A6F
:105F8000BBF1000F03F1010309EE903AC8BF0222F2
:105F90003FF7BAAEF7EE007A37EEC88A022242E641
:105FA000002B40F3A88099005AAA0A440DF1C80EAC
:105FB00052ED286A0EEB830272ED017A37EEA67A73
:105FC000964577EEC77A82ED007A77EEA67AF0EE04
:105FD000476AC2ED017AEFD1012B40F38C8003F1C7
:105FE0008043013B5AAA9B0011441A1D51ED286AB7
:105FF000724433A972ED017A37EEA67A914277EEB8
:10600000C77A82ED007A77EEA67AF0EE476AC2EDA3
:10601000017AEFD10833DFED3A7A73440EF1080EBE
:1060200033ED017A9E4577EE877AF9D14346DDED6F
:10603000326A9DED337A002B3DD1079BC3ED006A98
:1060400083ED017AC3ED027A81E7DFED2D7AF44426
:106050003CED017AE64577EE877AF9D19DED327A0B
:10606000424637EE677A002A3FF45CAF1AE0DFED74
:10607000247AF4443CED017AE64577EE877AF9D14B
:1060800043460BB1F1EE677A079BC3ED007A5EE7FA
:1060900000204BE6BDEEC00A5B4610EE102A47F822
:1060A0002B20DDE6079AF1EE677A002BC2ED007A2D
:1060B0003FF73DAF46E7079BF1EE666AB1EE477AE0
:1060C000F1EE677AC3ED006A83ED017AC3ED027ADF
:1060D0003DE7689A032A3FF63AAF01A151F822F052
:1060E000F1600008115F0008115F0008A15F00085F
:1060F000DFED037AC4E7DFED027A97E7DC510308AE
:106100000000000010EE103A23F00043B3F1485FA6
:1061100004DAFDEEC07A17EE903A5BB360EE007AD7
:106120009FED155ADFED155A9FED156ADFED156AE3
:106130009FED157AE7EE855A20EE275AA5EEA76A5D
:10614000E6EE276AA6EEA77A30B9DFED106AE7EE31
:10615000876AA6EE850A704727EE457AF6EE006A52
:10616000A0EEA67ADFED0A6AD7EE270AE5EE260A48
:1061700030EE600A704700BFD3C92E2F342FD7B23C
:106180001BEF3836010D50B98988083CABAA2ABEEE
:10619000ABAA2A3E08B510EE103A23F00042B2F145
:1061A000465F2DED028BB0EE407A11DAFDEEC07A3B
:1061B00017EE901A09BB431C134300F0A38001287B
:1061C0007DD0BDEC028BFFEE007A87EE870A08BD1A
:1061D00050498A4211DD002BDFED4F7ADFED4F6A27
:1061E000BCBFF1EE600AB1EE407A37EEC77A76EEC8
:1061F000E07ADFED4B0A37EE877A67EE076A9FEDAC
:10620000490A9FED492A9FED498ADFED491A9FED22
:10621000493ADFED492A9FED494ADFED493A9FEDC2
:10622000495ADFED494A9FED496ADFED495A9FED32
:10623000491A384966EEA67A8A42A7EE802AE7EE26
:10624000881AA2EE273AE1EEA72AA3EE274AE2EE49
:10625000A73AA4EE275AE3EEA74AA5EE276AE4EE92
:10626000A75AF0EE467AE5EEA67A27EE266AF0EE19
:10627000605AE7EE865AE5EEA60AE6EE010A37EE28
:10628000200A1FDC01281AD0FFEE007AC7EE806AD0
:10629000314B10EE102A1A4006EE102A16EE902A04
:1062A000134000EE103AF7EE007AE6EE007A36EE92
:1062B000477A70EEC70AE0EE807AA7EEA60ABDEC38
:1062C000028B08BD07EE900AF8EEE76A60EE005A0E
:1062D00070EE267A9B1785EEA76A03F00203C3F1DE
:1062E0000103BDEC028BF0EE005A76EE600A07EE79
:1062F000903A37EE607AF8EEE77AE7EE656A26EED6
:10630000A70A08BDFEF772F8F7EE007A87EE800A5A
:10631000D5E700BF3FA12C3FDA0F493F6821223368
:10632000000000005FAE9BB745F4A3388453D93713
:106330007AC09538C8261A3AB937813916696B3B45
:1063400048DEBE3AA427B33C1F37113C8988083E7B
:10635000D10D5D3DABAAAA3E00F0FFFF10EE103A52
:1063600023F00040B0F1FF4FACBF00200120704788
:1063700010EE102A22F00041CB0D7F3B162B28DCBB
:10638000002B18DB194919410A4221D0DFED187A98
:1063900070EE277AF5EEC07AF1EE10FA18DD002AD9
:1063A00004DA4FF4000040FA03F31A4422EA01032E
:1063B00000EE103A7047DFED0E7A70EE277AF5EEB8
:1063C000C07AF1EE10FA03DD002A08DB9FED090A1E
:1063D0007047B1F1FF4FFBD330EE000A7047002940
:1063E000FFEE007A18BFB0EE670A7047FFFF7F002C
:1063F000CAF24971000000009FED010A704700BF1A
:106400000000C07F10EE101A21F00040C30DA3F170
:106410007F02162A27DC28B310B4002A83B04FEA83
:10642000D17426DB234B1341194217D0580801427F
:1064300007D04FF4001321EA000113410B4300EE93
:10644000103A1D4B03EB8404D4ED007A37EE800A3A
:106450008DED010A9DED010A30EE670A03B05DF88B
:10646000044B70477047B0F1FF4FFBD330EE000A8A
:106470007047C1F316035B420F4A5B0A090D03F430
:1064800080030905194302EB8402D2ED006A07EE8E
:10649000901A36EEA77A8DED017ADDED017A77EE6E
:1064A000E67A17EE903A23F0004343EAC47300EE15
:1064B000103AD3E7FFFF7F000452030882B08DED4E
:1064C000010A019B33F000422AD0B2F1FF4F23D2E0
:1064D00013F0FF4F28D19DED017ADFED2A7A2A4B88
:1064E00067EE277A9842CDED017A37DB019BC3F343
:1064F000C752193A0244FE2A1ADD9FED240A9FED85
:10650000247A019B002BF0EE407AB8BFB0EE470A28
:1065100020EE270A02B0704730EE000A02B0704742
:106520009DED010A02B07047D20D0244FE2AE4DC60
:10653000002A0BDC12F1160F17DA4CF25033984296
:10654000DBDC9FED140A9FED147ADAE723F0FF43BA
:1065500043EAC25300EE103A02B070479FED0D0AB5
:10656000DDED017A27EE800AD8E7193223F0FF43E8
:1065700043EAC253DFED097A07EE103A27EE270A05
:10658000CCE700BF0000004CB03CFFFFCAF24971ED
:10659000CAF249F16042A20D6042A28D00000033B0
:1065A00010EE103A33F000422DD0002B32DBB3F165
:1065B000FF4F3FDAB3F5000F30B432DB0025654AF8
:1065C0006549C3F31604224402F40002DB1582F08D
:1065D0007E507F3B20432B4400EE100A04F10F0550
:1065E000B7EE007A294003EBD25330EE477A21BB55
:1065F000B5EE407AF1EE10FA62D1002B40F08D80BA
:106600009FED560A69E09FED567ADFED547A87EEEA
:10661000270A704770EE407A9FED507A87EE870A1E
:106620007047DFED507A60EE277A6FF0180517EEAD
:10663000903AC4E730EE000A7047F0EE007A77EE49
:10664000277A9FED493ADFED494ADFED495ADFED00
:10665000493A9FED495A9FED490ADFED496A494998
:1066600087EE274AC4F55712214402F522720A43E5
:10667000002A07EE903A24EE046AF8EEE72A66EE66
:10668000067AE7EE834AA7EEA35AE4EEA75AE5EEB0
:10669000276AA5EEA70A20EE060AA6EEA70A1EDDC7
:1066A000F6EE007A67EE277A67EE877A30EE270AF1
:1066B00020EE040A23BB37EEC00A37EE400A0CE096
:1066C000DFED317AB6EE000AA7EE670A67EE077AC9
:1066D00020EE270A73BB37EE400A30BC704737EE16
:1066E000400A20EE040A002BF5D0DFED286ADFED2A
:1066F000287AA2EEE60A30EE470A92EEA70AECE705
:106700009FED226ADFED226AA2EE860A37EEC00A0A
:1067100030EE470A92EEA60ADFE707EE903A9FEDC9
:106720001B0A9FED1B7AF8EEE77A27EE800AA7EEA8
:10673000870AD2E707EE903A9FED146ADFED146AFC
:10674000F8EEE77AA7EEC60A30EE470A97EEA60AF9
:10675000C3E700BF20FB4A00F0FF7F0000000000FD
:10676000000000CC0000004C9788173E25333A3ECD
:106770002549923E4FD01C3E298E633EABAA2A3F4C
:10678000CDCCCC3E305CCFFFABAAAA3ED1F71737B9
:106790008071313F014B1868704700BF080000202E
:1067A000032A70B412D940EA0105AD0704460B462E
:1067B00020D11946204653F8045B54F8046BAE42CE
:1067C00018D1043A032A20461946F2D8541E72B151
:1067D00003780A789A4208BF241806D00CE010F813
:1067E000013F11F8012F934206D1A042F7D10020BA
:1067F00070BC7047541EEBE7981A70BC704700BF1E
:10680000844641EA000313F003036DD1403A41D3BB
:1068100051F8043B40F8043B51F8043B40F8043B7A
:1068200051F8043B40F8043B51F8043B40F8043B6A
:1068300051F8043B40F8043B51F8043B40F8043B5A
:1068400051F8043B40F8043B51F8043B40F8043B4A
:1068500051F8043B40F8043B51F8043B40F8043B3A
:1068600051F8043B40F8043B51F8043B40F8043B2A
:1068700051F8043B40F8043B51F8043B40F8043B1A
:1068800051F8043B40F8043B51F8043B40F8043B0A
:10689000403ABDD2303211D351F8043B40F8043BAA
:1068A00051F8043B40F8043B51F8043B40F8043BEA
:1068B00051F8043B40F8043B103AEDD20C3205D3BA
:1068C00051F8043B40F8043B043AF9D2043208D0B2
:1068D000D2071CBF11F8013B00F8013B01D30B8824
:1068E00003806046704700BF082A13D38B078DD002
:1068F00010F003038AD0C3F10403D21ADB071CBFD4
:1069000011F8013B00F8013B80D331F8023B20F83D
:10691000023B7BE7043AD9D3013A11F8013B00F876
:10692000013BF9D20B7803704B7843708B788370FE
:1069300060467047F0B4860746D0541E002A3CD00B
:10694000CAB2034602E014F1FF3436D303F8012B38
:106950009D07F8D1032C29D9CDB245EA05250F2C86
:1069600045EA054533D9A4F11006360903F120079D
:1069700007EB061703F1100242E9045542E90255FC
:106980001032BA42F8D1721C14F00C0F03EB021251
:1069900004F00F0613D0331F23F003030433134412
:1069A00042F8045B9342FBD106F003042CB1C9B258
:1069B0001C4403F8011B9C42FBD1F0BC70473446D9
:1069C0001346002CF3D1F8E714460346C2E71A46F3
:1069D0002646E0E7830710B5044610D10268A2F10D
:1069E000013323EA020313F0803F08D150F8042F4B
:1069F000A2F1013323EA020313F0803FF6D00378BB
:106A00001BB110F8013F002BFBD100F0D7F9204655
:106A100010BD00BFC9B200F00303002935D07BB11F
:106A20000378002B57D0994252D0431C05E013F84D
:106A3000012B002A4DD08A424AD09A071846F6D137
:106A400070B441EA0126046846EA064601E050F8BF
:106A5000044F86EA0405A5F10132A4F1013322EACC
:106A6000050223EA0403134313F0803FEFD00378B9
:106A700043B1994202D106E08B4204D010F8013FA5
:106A8000002BF9D1184670BC70474BB10378FBB1AD
:106A9000431C02E002780133D2B199071846F9D1BC
:106AA0000268A2F1013323EA020313F0803F08D108
:106AB00050F8042FA2F1013323EA020313F0803FC0
:106AC000F6D0037823B110F8013F002BFBD17047BB
:106AD0007047104670471846704700BF000000001E
:106AE000A2EB0300704700BF02780B78012A28BF91
:106AF0009A42F5D16DE9044540EA0104CDE9026707
:106B00006FF0000C4FEA447212B380EA010414F0F3
:106B1000070F6AD100F0070420F0070004F0030516
:106B200021F007014FEAC505F0E8042314F0040F33
:106B3000F1E804670CFA05F462EA040266EA040666
:106B40000AD063EA0403624667EA0407664603E084
:106B5000F0E80423F1E8046782FA4CF582EA0604BF
:106B6000A4FA8CF46CBB83FA4CF583EA0705A5FA0A
:106B70008CF595B950E9022351E9026782FA4CF588
:106B800082EA0604A4FA8CF483FA4CF583EA07053A
:106B9000A5FA8CF52543DBD09CB92DBAB5FA85F45E
:106BA00024F0070427FA04F1DDE9026723FA04F36D
:106BB00003F0FF0001F0FF01FDE80445A0EB010038
:106BC000704724BAB4FA84F424F0070426FA04F1D6
:106BD000DDE9026722FA04F202F0FF0001F0FF0192
:106BE000FDE80445A0EB0100704714F0030F3CD111
:106BF00010F0030428D150F8082B51F8083B82FA12
:106C00004CF582EA0305A5FA8CF55DB950F8042C21
:106C100051F8043C82FA4CF582EA0305A5FA8CF59A
:106C2000002DE8D02DBAB5FA85F424F0070423FA34
:106C300004F122FA04F202F0FF0001F0FF01FDE886
:106C40000445A0EB010070474FEAC40420F00300A4
:106C500050F8082B21F0030151F8083B0CFA04F41A
:106C600062EA040263EA0403C9E710F003041AD0DD
:106C7000A1EB040120F00300E40750F8042B06D038
:106C80000FD28B785FFAA2F4E41A06D12BB1CB783D
:106C90005FFAB2F4E41A00D11BB920465DF8104B3C
:106CA000704701F1040150F8042BCC0721F00301D7
:106CB00051F8043B48D824D222F07F4482FA4CF5A4
:106CC00094EA1325A5FA8CF50AD165B951F8043B6D
:106CD00084EA0204B4EB036F0ED150F8042BEBE707
:106CE0004FEA132355E035F07F454DD10878FDE894
:106CF0000445C0F1000070474FEA126203F0FF0341
:106D000047E002EA1C4482FA4CF594EA1345A5FADE
:106D10008CF50AD165B951F8043B84EA0204B4EB5E
:106D2000034F0CD150F8042BEBE74FEA134330E04C
:106D300015EA1C4528D10B884FEA124229E04FEA98
:106D4000124203EA1C4324E002F0FF0482FA4CF5ED
:106D500094EA1365A5FA8CF50AD165B951F8043B9C
:106D600084EA0204B4EB032F09D150F8042BEBE7BB
:106D70004FEA13630DE015F0FF0F05D10B684FEAE2
:106D8000122223F07F4304E04FF00000FDE80445A9
:106D9000704712BA1BBA82FA4CF482EA0304A4FACE
:106DA0008CF5B5FA85F402FA04F203FA04F34FEA1B
:106DB0001260FDE80445A0EB1360704780EA010211
:106DC000844612F0030F4FD111F0030F32D14DF86A
:106DD000044D11F0040F51F8043B0BD0A3F1013224
:106DE0009A4312F0803F04BF4CF8043B51F8043B37
:106DF00016D100BF51F8044BA3F101329A4312F0AF
:106E0000803FA4F101320BD14CF8043BA24312F0B5
:106E1000803F04BF51F8043B4CF8044BEAD02346B2
:106E20000CF8013B13F0FF0F4FEA3323F8D15DF864
:106E3000044B704711F0010F06D011F8012B0CF82C
:106E4000012B002A08BF704711F0020FBFD031F8A4
:106E5000022B12F0FF0F16BF2CF8022B8CF800202B
:106E600012F47F4FB3D1704711F8012B0CF8012BAE
:106E7000002AF9D1704700BF0000000000000000A8
:106E800090F800F06DE9024520F007016FF0000C6A
:106E900010F0070491F820F040F049804FF0000412
:106EA0006FF00700D1E9002391F840F000F10800ED
:106EB00082FA4CF2A4FA8CF283FA4CF3A2FA8CF325
:106EC0004BBBD1E9022382FA4CF200F10800A4FA8C
:106ED0008CF283FA4CF3A2FA8CF3E3B9D1E90423E0
:106EE00082FA4CF200F10800A4FA8CF283FA4CF317
:106EF000A2FA8CF37BB9D1E9062301F1200182FAD1
:106F00004CF200F10800A4FA8CF283FA4CF3A2FAD6
:106F10008CF3002BC6D0002A04BF04301A4612BAE4
:106F2000B2FA82F2FDE8024500EBD2007047D1E9E7
:106F3000002304F00305C4F100004FEAC50514F076
:106F4000040F91F840F00CFA05F562EA05021CBF47
:106F500063EA050362464FF00004A9E7002A46D021
:106F600040EA010313F00303F0B425D1032A23D927
:106F700004680D68AC423CD1043A35D0A4F1013527
:106F800025EA040414F0803F2ED1071D0D1D0DE0ED
:106F900057F8043B0E68A3F10134B34224EA03041A
:106FA00027D1043A20D014F0803F1DD1032A29466E
:106FB000384605F10405EBD803780D789D4202F1BF
:106FC000FF360ED186B17BB1044602E082180BD0A9
:106FD00053B114F8013F11F8015FAB42A6EB040274
:106FE000F4D0581BF0BC70470020F0BC704710462E
:106FF000704703780D789D4202F1FF36E3D0F0E749
:1070000070B440EA0104A30727D1032A25D90B460F
:107010000646194653F8045BA5F1013424EA050439
:1070200014F0803F06D1043A032A46F8045B19465F
:10703000EFD882B133460C7803F8014B551E74B17A
:1070400032442E4405E011F8014FF51A03F8014BC4
:107050002CB19A42F7D170BC70470646E9E7002D83
:10706000F9D01D44002203F8012BAB42FBD170BCC8
:10707000704700BF024B1A6801235C3200F002B86F
:1070800008000020F0B418B307460D4617F8016B4E
:1070900001E0A64217D015F8014B002CF9D1E6B15A
:1070A00017F8015B0C4601E0002BF9D014F8013B06
:1070B0009D42F9D155B1002307F8013C17600646FF
:1070C0003046F0BC704763B13846DDE72F46F5E740
:1070D00010680028D8D10646F2E730461660F0BCAA
:1070E0007047176006460370EAE700BF0123FFF709
:1070F000C9BF00BF012B2DE9F84F41D0242B984682
:107100003ED80F46DFF81CC100E02F463D4615F87B
:10711000014B1CF8046016F00806F6D12D2C6CD03B
:107120002B2C0ABF95F800B0A346BD1C002B46D0FF
:10713000102B57D0002E14BF4FF000496FF00049BC
:107140000027B9FBF8FEBC4608FB1E9A07E0E6459F
:1071500013D32FD00CFB084C012715F801BBABF162
:107160003004092C05D9ABF14104192C0FD8ABF12F
:107170003704A34213DD002FE9DA4FF0FF37ECE7C5
:10718000FFF708FB162303600020BDE8F88FABF182
:107190006104192C03D8ABF15704A342EBDC002F98
:1071A00025DB0EB1CCF1000C0AB177BB1160604653
:1071B000BDE8F88FA245CDDA4FF0FF37CDE7BBF140
:1071C000300F03D04FF00A084346B3E72B7803F0A3
:1071D000DF03582B1BD14FF0100895F801B0434640
:1071E0000235A7E7BBF1300F15D09846A2E722235E
:1071F00003603AB1691ECC46D8E795F800B0012685
:10720000BD1C93E7CC466046D2E7E146F2E74FF07B
:10721000080843468EE72C7804F0DF04582CDAD0B7
:10722000984687E70D52030864E700BF10B4044C8A
:1072300013460A46014620685DF8044B5AE700BF32
:107240000800002010B4044C13460A46014620688A
:107250005DF8044B4EE700BF0800002081F00041BC
:1072600002E000BF83F0004330B54FEA41044FEA2B
:10727000430594EA050F08BF90EA020F1FBF54EAC6
:10728000000C55EA020C7FEA645C7FEA655C00F062
:10729000E2804FEA5454D4EB5555B8BF6D420CDD33
:1072A0002C4480EA020281EA030382EA000083EAB6
:1072B000010180EA020281EA0303362D88BF30BD56
:1072C00011F0004F4FEA01314FF4801C4CEA1131AC
:1072D00002D0404261EB410113F0004F4FEA03330B
:1072E0004CEA133302D0524263EB430394EA050F96
:1072F00000F0A780A4F10104D5F1200E0DDB02FA05
:107300000EFC22FA05F2801841F1000103FA0EF298
:10731000801843FA05F359410EE0A5F120050EF15E
:10732000200E012A03FA0EFC28BF4CF0020C43FA8F
:1073300005F3C01851EBE37101F0004507D54FF09C
:10734000000EDCF1000C7EEB00006EEB0101B1F5EC
:10735000801F1BD3B1F5001F0CD349085FEA300032
:107360004FEA3C0C04F101044FEA445212F5800F3D
:1073700080F09A80BCF1004F08BF5FEA500C50F1DA
:10738000000041EB045141EA050130BD5FEA4C0CBD
:10739000404141EB0101013C28BFB1F5801FE9D21A
:1073A00091F0000F04BF01460020B1FA81F308BF3D
:1073B0002033A3F10B03B3F120020CDA0C3208DD09
:1073C00002F1140CC2F10C0201FA0CF021FA02F1E4
:1073D0000CE002F11402D8BFC2F1200C01FA02F154
:1073E00020FA0CFCDCBF41EA0C019040E41AA2BF79
:1073F00001EB0451294330BD6FEA04041F3C1CDA41
:107400000C340EDC04F11404C4F1200220FA04F060
:1074100001FA02F340EA030021FA04F345EA03010A
:1074200030BDC4F10C04C4F1200220FA02F001FACC
:1074300004F340EA0300294630BD21FA04F029464E
:1074400030BD94F0000F83F4801306BF81F48011E7
:107450000134013D4EE77FEA645C18BF7FEA655C5A
:1074600029D094EA050F08BF90EA020F05D054EA2C
:10747000000C04BF1946104630BD91EA030F1EBF31
:107480000021002030BD5FEA545C05D14000494135
:1074900028BF41F0004130BD14F580043CBF01F528
:1074A000801130BD01F0004545F0FE4141F470010E
:1074B0004FF0000030BD7FEA645C1ABF19461046E9
:1074C0007FEA655C1CBF0B46024650EA013406BFEA
:1074D00052EA033591EA030F41F4002130BD00BFA9
:1074E00090F0000F04BF0021704730B54FF4806466
:1074F00004F132044FF000054FF0000150E700BFE7
:1075000090F0000F04BF0021704730B54FF4806445
:1075100004F1320410F0004548BF40424FF0000132
:107520003EE700BF42004FEAE2014FEA31014FEA75
:1075300002701FBF12F07F4393F07F4F81F06051C4
:10754000704732F07F4208BF704793F07F4F04BF0F
:1075500041F40021704730B54FF4607401F00045EC
:1075600021F000411CE700BF50EA010208BF70474C
:1075700030B54FF000050AE050EA010208BF70473D
:1075800030B511F0004502D5404261EB41014FF4A6
:10759000806404F132045FEA915C3FF4D8AE4FF0AE
:1075A00003025FEADC0C18BF03325FEADC0C18BF91
:1075B000033202EBDC02C2F1200300FA03FC20FAE2
:1075C00002F001FA03FE40EA0E0021FA02F114442F
:1075D000BDE600BF70B54FF0FF0C4CF4E06C1CEA48
:1075E00011541DBF1CEA135594EA0C0F95EA0C0FB9
:1075F00000F0DEF82C4481EA030621EA4C5123EA2C
:107600004C5350EA013518BF52EA033541F480115A
:1076100043F4801338D0A0FB02CE4FF00005E1FB0D
:1076200002E506F00042E0FB03E54FF00006E1FB57
:1076300003569CF0000F18BF4EF0010EA4F1FF049A
:10764000B6F5007F64F5407404D25FEA4E0E6D41DA
:1076500046EB060642EAC62141EA55514FEAC520EB
:1076600040EA5E504FEACE2EB4F1FD0C88BFBCF567
:10767000E06F1ED8BEF1004F08BF5FEA500E50F118
:10768000000041EB045170BD06F0004646EA0101DE
:1076900040EA020081EA0301B4EB5C04C2BFD4EB10
:1076A0000C0541EA045170BD41F480114FF0000E09
:1076B000013C00F3AB8014F1360FDEBF002001F077
:1076C000004170BDC4F10004203C35DA0C341BDCF1
:1076D00004F11404C4F1200500FA05F320FA04F0C3
:1076E00001FA05F240EA020001F0004221F00041F7
:1076F00010EBD37021FA04F642EB06015EEA430E6A
:1077000008BF20EAD37070BDC4F10C04C4F1200599
:1077100000FA04F320FA05F001FA04F240EA02004C
:1077200001F0004110EBD37041F100015EEA430E1D
:1077300008BF20EAD37070BDC4F1200500FA05F23D
:107740004EEA020E20FA04F301FA05F243EA0203BC
:1077500021FA04F001F0004121FA04F220EA0200CB
:1077600000EBD3705EEA430E08BF20EAD37070BD11
:1077700094F0000F0FD101F00046400041EB0101F1
:1077800011F4801F08BF013CF7D041EA060195F0D3
:10779000000F18BF704703F00046520043EB03038D
:1077A00013F4801F08BF013DF7D043EA060370477A
:1077B00094EA0C0F0CEA135518BF95EA0C0F0CD085
:1077C00050EA410618BF52EA4306D1D181EA0301CB
:1077D00001F000414FF0000070BD50EA410606BFC5
:1077E0001046194652EA430619D094EA0C0F02D10A
:1077F00050EA013613D195EA0C0F05D152EA03364F
:107800001CBF104619460AD181EA030101F000416C
:1078100041F0FE4141F470014FF0000070BD41F0B5
:10782000FE4141F4780170BD70B54FF0FF0C4CF48F
:10783000E06C1CEA11541DBF1CEA135594EA0C0FAE
:1078400095EA0C0F00F0A7F8A4EB050481EA030EFB
:1078500052EA03354FEA013100F088804FEA0333E2
:107860004FF0805545EA131343EA12634FEA0222B0
:1078700045EA111545EA10654FEA00260EF0004171
:107880009D4208BF964244F1FD0404F5407402D2C3
:107890005B084FEA3202B61A65EB03055B084FEA54
:1078A00032024FF480104FF4002CB6EB020E75EB51
:1078B000030E22BFB61A754640EA0C005B084FEA79
:1078C0003202B6EB020E75EB030E22BFB61A7546F6
:1078D00040EA5C005B084FEA3202B6EB020E75EB41
:1078E000030E22BFB61A754640EA9C005B084FEAB9
:1078F0003202B6EB020E75EB030E22BFB61A7546C6
:1079000040EADC0055EA060E18D04FEA051545EAB4
:1079100016754FEA06164FEAC30343EA52734FEA5D
:10792000C2025FEA1C1CC0D111F4801F0BD141EAD6
:1079300000014FF000004FF0004CB6E711F4801F3B
:1079400004BF01430020B4F1FD0C88BFBCF5E06F1B
:107950003FF6AFAEB5EB030C04BFB6EB020C5FEA2B
:10796000500C50F1000041EB045170BD0EF0004E80
:107970004EEA113114EB5C04C2BFD4EB0C0541EAB2
:10798000045170BD41F480114FF0000E013C90E6AF
:1079900045EA060E8DE60CEA135594EA0C0F08BF73
:1079A00095EA0C0F3FF43BAF94EA0C0F0AD150EA72
:1079B00001347FF434AF95EA0C0F7FF425AF104605
:1079C00019462CE795EA0C0F06D152EA03353FF42D
:1079D000FDAE1046194622E750EA410618BF52EAAA
:1079E00043067FF4C5AE50EA41047FF40DAF52EA7E
:1079F00043057FF4EBAE12E74FF0FF3C06E000BF1B
:107A00004FF0010C02E000BF4FF0010C4DF804CD27
:107A10004FEA410C7FEA6C5C4FEA430C18BF7FEAE7
:107A20006C5C1BD001B050EA410C0CBF52EA430C15
:107A300091EA030F02BF90EA020F0020704710F195
:107A4000000F91EA030F58BF994208BF90422CBF24
:107A5000D8176FEAE37040F0010070474FEA410C1D
:107A60007FEA6C5C02D150EA013C07D14FEA430C3B
:107A70007FEA6C5CD6D152EA033CD3D05DF8040BAC
:107A8000704700BF8446104662468C4619466346DE
:107A900000E000BF01B5FFF7B7FF002848BF10F1B5
:107AA000000F01BD4DF808EDFFF7F4FF0CBF0120FA
:107AB00000205DF808FB00BF4DF808EDFFF7EAFF76
:107AC00034BF012000205DF808FB00BF4DF808ED31
:107AD000FFF7E0FF94BF012000205DF808FB00BF26
:107AE0004DF808EDFFF7CEFF94BF012000205DF8B0
:107AF00008FB00BF4DF808EDFFF7C4FF34BF0120BD
:107B000000205DF808FB00BF4A0011D212F50012F8
:107B100011D20DD56FF47873B3EB62520ED44FEAE5
:107B2000C12343F0004343EA505323FA02F0704765
:107B30004FF00000704750EA013002D14FF0FF30A3
:107B400070474FF0000070474FEA4102B2F1E04346
:107B500024BFB3F5001CDCF1FE5C0DD901F0004C34
:107B60004FEAC0024CEA5070B2F1004F40EB830084
:107B700008BF20F00100704711F0804F21D113F1B0
:107B80003872BCBF01F00040704741F480114FEAE9
:107B90005252C2F11802C2F1200C10FA0CF320FA72
:107BA00002F018BF40F001004FEAC1234FEAD3238F
:107BB00003FA0CFC40EA0C0023FA02F34FEA4303F9
:107BC000CCE77FEA625307D150EA01331EBF4FF082
:107BD000FE4040F44000704701F0004040F0FE409D
:107BE00040F40000704700BF80F0004002E000BF9A
:107BF00081F0004142001FBF5FEA410392EA030F98
:107C00007FEA226C7FEA236C6AD04FEA1262D2EBE1
:107C10001363C1BFD218414048404140B8BF5B42E6
:107C2000192B88BF704710F0004F40F4000020F07F
:107C30007F4018BF404211F0004F41F4000121F095
:107C40007F4118BF494292EA030F3FD0A2F10102DF
:107C500041FA03FC10EB0C00C3F1200301FA03F11D
:107C600000F0004302D5494260EB4000B0F5000F40
:107C700013D3B0F1807F06D340084FEA310102F1FF
:107C80000102FE2A51D2B1F1004F40EBC25008BFB1
:107C900020F0010040EA03007047490040EB00007B
:107CA000013A28BFB0F5000FEDD2B0FA80FCACF17C
:107CB000080CB2EB0C0200FA0CF0AABF00EBC250A9
:107CC00052421843BCBFD0401843704792F0000F97
:107CD00081F4000106BF80F400000132013BB5E7EA
:107CE0004FEA41037FEA226C18BF7FEA236C21D060
:107CF00092EA030F04D092F0000F08BF08467047C5
:107D000090EA010F1CBF0020704712F07F4F04D192
:107D1000400028BF40F00040704712F100723CBFA5
:107D200000F50000704700F0004343F0FE4040F4CF
:107D3000000070477FEA226216BF08467FEA23638D
:107D40000146420206BF5FEA412390EA010F40F478
:107D5000800070474FF0000304E000BF10F00043C4
:107D600048BF40425FEA000C08BF704743F09643AB
:107D700001464FF000001CE050EA010208BF7047C6
:107D80004FF000030AE000BF50EA010208BF70474D
:107D900011F0004302D5404261EB41015FEA010C62
:107DA00002BF84460146002043F0B64308BFA3F15A
:107DB0008053A3F50003BCFA8CF2083AA3EBC2533C
:107DC00010DB01FA02FC634400FA02FCC2F120025B
:107DD000BCF1004F20FA02F243EB020008BF20F092
:107DE0000100704702F1200201FA02FCC2F12002F8
:107DF00050EA4C0021FA02F243EB020008BF20EAED
:107E0000DC70704753B94AB9002908BF00281CBF6D
:107E10004FF0FF314FF0FF3000F0ECB9ADF1080C3E
:107E20006DE904CE00F084F8DDF804E0DDE902231A
:107E300004B07047430803F05533C01A830803F0B9
:107E4000333300F03330184400EB101000F00F30E3
:107E500000EB002000EB0040000E704707EE900A98
:107E6000F5EEC07AF1EE10FA01D400F023B8F1EE8D
:107E7000677A08B517EE900A00F01CF8404261EBF3
:107E8000410108BD38B50022002304460D46FFF726
:107E900013FE28B920462946BDE8384000F02AB82C
:107EA000204605F1004100F025F8404261EB410118
:107EB00038BD00BFD0B5FFF735FB0C4B002206469E
:107EC0000F46FFF787FBFFF71FFE0446FFF708FB8F
:107ED000074B0022FFF77EFB02460B463046394631
:107EE000FFF7C0F9FFF710FE2146D0BD0000F03DBE
:107EF0000000F041D0B50C4B002206460F46FFF7BC
:107F000069FBFFF701FE0446FFF7EAFA074B002280
:107F1000FFF760FB02460B4630463946FFF7A2F9F1
:107F2000FFF7F2FD2146D0BD0000F03D0000F0411A
:107F30002DE9F047089D04468C46002B40F08380D5
:107F40008A42174647D9B2FA82F242B1C2F1200002
:107F500024FA00F09140974040EA010C94404FEA27
:107F60001748230CBCFBF8F61FFA87FE08FB16C166
:107F700043EA014306FB0EF1994209D9FB1806F1C9
:107F8000FF3080F01981994240F21681023E3B4455
:107F90005B1AA4B2B3FBF8F008FB103344EA0344C5
:107FA00000FB0EFEA64509D93C1900F1FF3380F015
:107FB0000581A64540F2028102383C4440EA064071
:107FC000A4EB0E0400261DB1D4400023C5E90043F4
:107FD0003146BDE8F08702B9FFDEB2FA82F2002A2C
:107FE00050D1CB1B4FEA174E1FFA87F80126B3FB7F
:107FF000FEFC210C0EFB1C3341EA034108FB0CF391
:108000008B4207D979180CF1FF3002D28B4200F273
:10801000E9808446C91AA3B2B1FBFEF00EFB101131
:1080200043EA014408FB00F8A04507D93C1900F1D8
:10803000FF3302D2A04500F2D9801846A4EB080411
:1080400040EA0C40BFE78B4209D9002D00F0B18017
:108050000026C5E9000130463146BDE8F087B3FA95
:1080600083F6002E4AD18B4202D3824200F2B880BE
:10807000841A61EB030101208C46002DA8D0C5E9CC
:10808000004CA5E7C2F1200320FA03F6974001FA5D
:1080900002F04FEA174ED9403043030CB1FBFEF615
:1080A0001FFA87F80EFB161143EA014306FB08F19D
:1080B000994204FA02F409D9FB1806F1FF3C80F05A
:1080C0008D80994240F28A80023E3B445B1A81B225
:1080D000B3FBFEF00EFB103341EA034100FB08F353
:1080E0008B4207D9791800F1FF3C73D28B4271D9CA
:1080F00002383944CB1A40EA064678E7C6F1200C2C
:1081000003FA06F422FA0CF31C4320FA0CF701FAE6
:1081100006F34FEA144E21FA0CF11F433B0CB1FB5E
:10812000FEF91FFA84F80EFB191143EA014109FB1D
:1081300008FA8A4502FA06F200FA06F308D961182D
:1081400009F1FF3048D28A4546D9A9F102092144F4
:10815000A1EB0A01BFB2B1FBFEF00EFB101147EA22
:10816000014700FB08F8B84507D9E71900F1FF31CE
:108170002ED2B8452CD90238274440EA0940A7EB53
:108180000807A0FB02894F45C64649461AD317D0B7
:108190005DB1B3EB0E0267EB010707FA0CFCF2408E
:1081A0004CEA0202F740C5E9002700263146BDE847
:1081B000F0872E4628460BE70646E9E61846FDE618
:1081C0004345E5D2B8EB020E69EB04010138DFE765
:1081D0000846D2E760468DE78146B9E7664675E70F
:1081E00030464AE7ACF1020C394413E702383C440C
:1081F00024E700BF704700BF13B5C3B20C20154A77
:10820000584314180121105812F0A0F9684611F0D3
:10821000E1FF2389009340F203136068ADF8043056
:10822000694600238DF8073011F092FF01230A48B8
:10823000A17A1A4611F097FD074811F0D2FD0648C1
:10824000022111F0D6FD0028F9D0034811F0CEFD2F
:1082500002B010BD14530308002101407FB5144A39
:108260000123834008281360124B1AD00A2815D026
:10827000062819D000221A601B6800930023CDE95C
:108280000233ADF8043004930B48012369468DF89E
:10829000143011F015FD07B05DF804FB4FF080724B
:1082A000E9E74FF00072E6E74FF04072E3E700BF06
:1082B000B81C0020BC1C00200021014000B58BB080
:1082C00011F0F0FC04A811F021FD684611F03CFD0E
:1082D00001214FF4007012F05DF900236846CDE9EA
:1082E0000033CDE9023311F01BFD0C20FFF7B6FF80
:1082F0000348012111F02EFD0BB05DF804FB00BF17
:108300000021014038B5FFF777FFFFF7F9F80022A9
:10831000094BFFF75FF9094B044618680D46FFF754
:10832000DFF802460B4620462946FFF77DFAFFF7A5
:108330000BFC00EE100A38BD00000840B81C0020FD
:10834000F7B50C23164DC4B26343EF18E8580E4638
:10835000012112F0FBF83A8900920023012E0CBF94
:1083600001221A46ADF806308DF804200DD18DF8A3
:1083700006300C2000FB0455012368688DF8053099
:10838000694611F0E5FE03B0F0BD022E03D0032EC6
:10839000EFD1022300E001238DF80730E9E700BFA9
:1083A00014530308054B0C22C0B202FB00300A1E16
:1083B00018BF01220189406811F01CBF1453030843
:1083C00008B5064B0C22C0B202FB003001894068A0
:1083D00011F006FF431E5842584108BD14530308CC
:1083E00010B5044686B0104812F014F94FF48272AA
:1083F0000023ADF808200C48ADF806304FF40072A9
:108400000DF10601ADF80A30ADF80C30ADF80E30C4
:10841000ADF81020ADF81430ADF81630ADF81240BC
:1084200012F054F906B010BD0030014070B50322BF
:1084300092B00021012028F075FC414B0322186006
:108440000021012028F06EFC3E4B1860012028F02E
:108450007CFD3D4B012118604FF4805012F09AF8DA
:108460000121084612F072F801214FF4800012F049
:108470006DF805221146354811F0C1FE334805223A
:10848000062111F0BCFE31480522072111F0B7FE8C
:108490002F4B2E48202201A9CDE9012311F058FECF
:1084A000802301A929480193402611F051FE01A91A
:1084B0002648019611F04CFE4FF480630024099386
:1084C000244B04934FF0C0654FF4003321462248FB
:1084D0000D93CDE90E4410940B940C9411940A94CE
:1084E0000894079405940395069611F047FD03A997
:1084F000194811F019FD214618480694039511F00A
:108500003DFD03A9154811F00FFD07238DF801303B
:108510008DF802404423012468468DF800308DF820
:10852000034011F09BFF382368468DF8003011F0AE
:1085300095FF2820FFF754FF094B1C7012B070BD47
:10854000141D0020041D00200C1D0020000002400E
:10855000020200020C3001408864024010640240B4
:10856000C11C0020F8B501F17043B3F5803F064609
:108570000C46174604D22B492B48E22224F0E8FC93
:1085800007F17043B3F5803F04D226492648E32221
:1085900024F0DEFC254DEC60254C6E600122E76086
:1085A00010212846666011F02FFD0122102120467F
:1085B00011F02AFD1F49284611F00EFD1E492046E4
:1085C00011F00AFD0121284611F0D8FC01212046B6
:1085D00011F0D4FC19480122022112F0A2F8012264
:1085E0001146164812F09DF81448012112F08DF83A
:1085F000134B4FF0FF31186828F02EFE01280ED1E2
:10860000104B4FF0FF31186828F026FE431E5C42E5
:108610005C410A48002112F078F82046F8BD002499
:10862000F7E700BFB0530308D19003088864024005
:1086300010640240400F00203D00801000300140D7
:10864000141D0020041D002010B5064B04464FF0F9
:10865000FF31186828F000FE2046BDE81040FFF703
:10866000BFBE00BF0C1D00200348002300681A464F
:10867000194628F08FBB00BF0C1D002013B5002445
:10868000224613480194102111F0BEFC11491048F4
:1086900011F004FD0F490E4811F09EFC22460E48D1
:1086A000022112F03EF80A48214611F067FC0B4BFC
:1086B00001A9186828F0CAFC019B3BB1084B4FF098
:1086C00080521A60BFF34F8FBFF36F8F02B010BD9F
:1086D000886402400008002000300140141D002082
:1086E00004ED00E013B50024224613480194102144
:1086F00011F08AFC1149104811F0D0FC0F490E48C6
:1087000011F06AFC22460E48012112F00AF80A48CC
:10871000214611F033FC0B4B01A9186828F096FC98
:10872000019B3BB1084B4FF080521A60BFF34F8F53
:10873000BFF36F8F02B010BD106402402000001024
:1087400000300140041D002004ED00E0064A1378CB
:108750004BB9064B06491960064B5B1A06499B103C
:108760000B60012313707047201D0020181D00208E
:108770000C0704084C0704081C1D002008B5FFF76F
:10878000E5FF014B186808BD1C1D002070B50D46A3
:108790000446FFF7DBFF094B1A68094B19680023F1
:1087A0009A4201DC002070BD51F823000678A642F1
:1087B00002D14678AE42F6D00133F1E71C1D00200D
:1087C000181D00202DE9F0410646FFF7BFFF0B4BB7
:1087D0001F680B4BD3F800800024A74203DC002560
:1087E0002846BDE8F08158F8245030466968FEF705
:1087F0007BF90028F4D00134EFE700BF1C1D0020F6
:10880000181D002030B5034644680020844202DC75
:108810004FF0FF3030BD1A68155C8D42FAD002442B
:10882000527802321044F1E7014B1868704700BFDC
:10883000241D0020044B1B688342C3BF034B7C22D2
:1088400002FB003000207047241D002000000010B3
:1088500008B5FFF7D7FFC043C00F08BDF8B5044601
:1088600017461D46FFF7CEFF061E10DB21688B1949
:108870006C1E5A789442A8BF1446023622463144F0
:108880003846FDF7BDFF00233B552046F8BD0023C9
:108890003B704FF0FF34F8E730B51F4C8BB02368C6
:1088A000CDF80A30A388ADF80E300546A3798DF8CF
:1088B0001030002117220DF11100FEF73BF854F89B
:1088C0001E0F0090A388ADF8043005F1700400235A
:1088D00001212046CDF80630FFF7BAFF30B11E2344
:1088E0000DF10A0201212046FFF7B8FF02212046C0
:1088F000FFF7AEFF28B10A236A4602212046FFF7A0
:10890000ADFFAA6F054B9A4203D10549054824F0F3
:10891000CBFF0BB030BD00BF9C4C0308BC57030815
:10892000E953030881F401082DE9F04FA54B8BB002
:108930001D7800AF7B60002D40F086807D720CF0CA
:10894000A3F907F109000CF0E5F9064610B39E4CB7
:10895000DFF8BCA2DFF87C92DFF8B8B2A8467B7AD9
:1089600098451DDA2346702200215FFA88F00CF04A
:1089700017FA002800F0B2802378EB2B68D09349D7
:10898000484624F091FF42465946484624F08CFF61
:10899000002697E08E498F4824F086FF7E720126DC
:1089A0008D4CD4F8008098F800304BB38B490422EA
:1089B0004046FEF7D3FA18B3424689498548DFF8A6
:1089C00058A2DFF81082DFF800B224F06DFF2168B2
:1089D00039603A2308467B81FEF752FA083020F0CE
:1089E0000700E946ADEB000D39686846FEF7E6F989
:1089F00007F10A016846FEF73DFB002877D1CD4616
:108A0000784C0EB17B7A23606F4E724A4FF00008AB
:108A1000B146C346C246012120688045C0F28E801F
:108A200001B92160DFF8F491DFF8F4B1DFF8A4A117
:108A30004FF0000823689845C0F2A8800DB10023CC
:108A400023607A68012313702C37BD46BDE8F08F90
:108A50000721204624F02FFDE379C0B2834201D0E4
:108A600061498DE7237A0BB1604989E7617A04F1A6
:108A70000800023124F01FFD534A617A7C2303FB76
:108A800008230B44C2B29B7A9A4204D05849484604
:108A900024F00AFF77E704F10A03C4E91C3107F167
:108AA0000A021E23012104F17000FFF7D7FE60794E
:108AB00060B1A179FFF76AFE00B94E48A067204671
:108AC000FFF7EAFE08F101087C3448E7BB7A002B87
:108AD000F3D007F10A00FFF775FEEDE73860424674
:108AE0005146484624F0E0FE3B681E46EAE7206017
:108AF000FFF768FE50B922683F49404624F0D4FE93
:108B000007F10A010020FEF7B5FA76E7C36913B949
:108B1000036A002BF4D07B7A042B0AD80133DBB232
:108B20007C227B72013B02FB03B3344922689867C5
:108B3000E3E75146404624F0B7FEE1E7D9F8780074
:108B400080681AEA000008D02D4B184205D02D4944
:108B5000104624F0A9FE1F4A0021D9F87800C06809
:108B60001BEA000F05D02849104624F09DFE194A43
:108B70000021D9F8783098684AEA000AD86808F1E4
:108B800001084BEA000B09F17C0945E7BDB9B36F59
:108B90001B7C23B199F800205AB989F800301B4A90
:108BA000B36F11785B7C0B43137008F101087C36BE
:108BB00040E79342F3D05946504624F075FE012514
:108BC000EDE700BF281D0020000000106A540308D4
:108BD0001854030881F4010838040020B85503082C
:108BE000BD550308241D002094540308C3540308F2
:108BF000F3540308BC570308E4550308215603083F
:108C0000F3E3FFFF8D560308065703082A1D0020D3
:108C1000705503082655030851560308291D0020E6
:108C20007D570308014B1878704700BF291D0020AD
:108C3000014B1878704700BF2A1D00204FF0A0405C
:108C4000704700004FF4883070470000014B1868EF
:108C5000704700BF702B002041F6FF7070474FF443
:108C60008050704741F2F4007047032970B5044604
:108C7000154603D8036903B15A5470BD0429FCD1C9
:108C8000EA0702D5036A03B19847AB07F5D5636AD3
:108C9000002BF2D0BDE87040184700002DE9F047E6
:108CA00004460F469046FFF7BFFDB4F1805F0546CE
:108CB00020D2002619E0B4F5805F14D3A4F58059C2
:108CC000B5EB991F4FEA99100DDDFFF7B3FD836FE8
:108CD00018F8062019F0200F0CBF5869986909F0A0
:108CE0001F01FFF7C2FF01360134BE42E3D301206A
:108CF000BDE8F087230F013B4500B5EB530F4FEA6A
:108D0000530601DC0020F3E7304603F00105FFF7CE
:108D100091FD826F536905B19369002BF2D0D3F8AE
:108D200000E0BEF1000FEDD0701C284442463946E9
:108D3000A4EB0070F446BDE8F047604703461046D8
:108D4000CA18B2F5005F03D20A4699B205F07AB9A3
:108D50000020704710B45418702C04D85DF8044BF0
:108D600089B20CF081B800205DF8044B7047000018
:108D700018F0A6BCB0F5805FF8B50D4611461BD2C1
:108D8000B0F5806F35D255FA80F3342BC2B230D8AB
:108D9000040A342318486343C61803F57173134457
:108DA000002786F8F4732A461844FDF729FD20466B
:108DB00023F05CFB0120F8BDA0F58050B0F5806F7A
:108DC00017D255FA80F33D2BC2B212D8040A3D23C4
:108DD00009486343C61803F534731344002786F823
:108DE0000C732A461844FDF70BFDE0B223F006FC95
:108DF000E0E70020DFE700BFF04301202DE9F34169
:108E00001E468368044690460F46984710F0010FAF
:108E10000CBF01250325820748BF45F02005430705
:108E2000636848BF45F040050BB145F00405236871
:108E30000BB145F00805237B0BB145F010053570EB
:108E4000236A626A003B18BF01230AB143F00203A0
:108E500073706369C6F80230A369C6F80630C6F8B5
:108E60000A801122394606F10E00FEF7C9F8E369BF
:108E7000A3B13846FEF704F833183A229A73E16931
:108E8000019105460846FDF7FBFF0F3501990246A3
:108E9000701902B0BDE8F041FDF7B2BC02B0BDE808
:108EA000F08100002DE9F04F2DED028B83B000AF73
:108EB00006460C469046FFF7B7FCB6F1805F786037
:108EC0005ED2224600214046FDF734FD002E54D1EB
:108ED00034B901200C37BD46BDEC028BBDE8F08FE4
:108EE0000323013C88F80030E4B24FF00109002C64
:108EF000EFD06B4608EE103A7A6806EB09033B6048
:108F0000013BB2EB931F4FEA9315E2DD90B0284688
:108F1000FFF790FC8246002140226846FDF70AFDDB
:108F2000DAF878104869EB4628B16A1C49686B4644
:108F30001207FFF763FFDAF87810886930B1AA1CCE
:108F400049680BF120031207FFF758FF3B68A9019E
:108F50000131591AC1F1400AA245A8BFA24608EB47
:108F6000090052465944FDF74BFC18EE103AA4EBA9
:108F70000A04E4B2D1449D46B9E74FF00009B6E7D0
:108F80007A68330F013B5000B0EB530F4FEA53099F
:108F900001DC00209EE7484603F00105FFF74AFC8C
:108FA000826F536905B19369002BF2D05B68002B87
:108FB000EFD009F10100284442462146A6EB00709B
:108FC000984787E7F0B5B0F5805F85B004460E4658
:108FD000154619D24FF480712A4802F07DFB2949C9
:108FE000013C0023B34202DB012005B0F0BD671C49
:108FF00006D0A04206DD625CEA543C460133F1E74C
:109000000246F9E70022F7E7A0F58053B3F5805F49
:1090100018D24FF480711B4802F080FBA4F58054F5
:109020001849013C0023B342DEDA621C06D0A0429C
:1090300006DD625CEA5401340133F4E70246F9E7E5
:109040000022F7E710F0FF01A0F5005716D10D2E12
:1090500016D110226846FDF76DFC6946C7F307205C
:1090600002F018FB019B2B60029B6B60039BAB60C3
:10907000009B003B18BF01232B73B5E70020B4E72A
:109080000846B2E72022002010B4084C0B462468A2
:1090900011461A18A24204D85DF8044B1A4604F08F
:1090A00087BC00205DF8044B704700BF702B002088
:1090B00003461046CA18B2F5005F03D20A4699B2B9
:1090C00004F0A8BF0020704710B45418702C04D8C6
:1090D0005DF8044B89B20BF063BE00205DF8044BD1
:1090E0007047000018F0FEBA0346B3F5805F10B574
:1090F000104612D2B3F5806F20D251FA83F4342C8B
:10910000DAB21BD81B0A342404FB03230A460C4999
:109110001944FDF775FB012010BDA3F58053B3F58D
:10912000806F0BD251FA83F43D2CDAB206D81B0AB9
:109130003D2404FB03230A460249E9E70020EBE74C
:10914000B4470120C046012001481BF0A1B800BF70
:10915000E05703082DE9F843FFF710FBFFF7E4FBA6
:10916000FFF7F2FFFFF760FB1449DFF85880144F58
:10917000DFF8549002460646114824F095FB00247F
:10918000B44201DBBDE8F8832046FFF753FB836F51
:10919000DA69054652B15A6852B123464946384603
:1091A00024F082FBAB6F2846DB6998470134E7E780
:1091B00022464146384624F077FBF3E71858030867
:1091C00081F4010867580308355803082DE9F04772
:1091D000FFF72AFBDFF84490DFF84480DFF844A073
:1091E000064600240127B44202DB3846BDE8F0877A
:1091F0002046FFF71FFB836F1B6A3BB1984722464F
:10920000054628B15146404624F04EFB0134EAE7BA
:109210004946404624F048FB2F46F7E7AB58030881
:1092200081F401088C58030870B5134D134E0346A2
:1092300004462A4603CAB24220606160154604F122
:109240000804F6D10E4D0F4E03F128042A4603CA36
:10925000B24220606160154604F10804F6D10A4C60
:109260000A4D5033224603CAAA4218605960144678
:1092700003F10803F6D170BD00000240280002404F
:10928000000402402804024000080240280802406E
:1092900070B5114D0246034600F12806186859685A
:1092A0002C4603C40833B3422546F7D10B4D02F1D7
:1092B0005006186859682C4603C40833B342254643
:1092C000F7D1074D7832186859682C4603C4083323
:1092D00093422546F7D170BD0000024000040240D1
:1092E000000802402DE9F8430F4CDFF84080DFF81A
:1092F000409005460127002634F8021C54F8060C5D
:1093000010F06EFF854206D02B4622464146484665
:1093100024F0CAFA002701360B2E04F10C04EBD11D
:109320003846BDE8F88300BF42040020CC5803084B
:1093300081F401082DE9F041A2B00DF0EDFF01210B
:109340000446072011F002F904A8384DFFF76CFF1E
:1093500000262F46B046BB8857F80C0B02A90136F1
:10936000CDE9023810F0F4FE0B2EF4D100264FF0B8
:10937000010837467CB3AB882868029302A9ADF890
:109380000C808DF80E7010F0E3FEA988286810F0AC
:109390002DFF0197019BB3F57A7F3EDB0120FFF79C
:1093A000A1FFA9880446286810F022FF0197019BBD
:1093B000B3F57A7F35DB0020FFF794FF01360028F4
:1093C00002A955F80C0B8DF80C7008BF002410F0A2
:1093D000BFFE0B2ECED104A8FFF75AFFCCB101235C
:1093E0001348ADF80C308026002302A98DF80E300A
:1093F0004025029610F0ACFE0D48029502A910F02F
:10940000A7FE0B48314610F0F3FE0948294610F03C
:10941000EFFE204622B0BDE8F081019B01330193AD
:10942000B8E7019B01330193C1E700BF3C04002072
:10943000000402402DE9F04FA5B00DF06DFF0121B1
:109440000446072011F082F806A8DFF8C081FFF774
:10945000EBFE002546462F46B38856F80C0B04A9B0
:109460000135CDE9043710F073FE0B2DF4D1002641
:10947000664D4FF0010B3746002C51D0AB88286861
:10948000049304A9ADF814B08DF8167010F060FEC6
:10949000A988286810F0AAFE0397039BB3F57A7F8A
:1094A0005CDB4346A1464FF0000A184601210193B8
:1094B00000F05AF90AF1010A0028019B08BF4FF099
:1094C0000009BAF10B0F03F10C03EED1A98828684B
:1094D00010F08EFE0397039BB3F57A7F42DB434681
:1094E0004FF0000A18460021019300F03DF90AF1FF
:1094F000010A0028019B08BF0024BAF10B0F03F1F9
:109500000C03EFD1002C55F80C0B8DF8147004A946
:1095100006F1010618BF4C4610F01AFE0B2EABD117
:109520003B4D00262F46B046BB8857F80C0B04A9CC
:109530000136CDE9043810F00BFE082EF4D1CDF839
:109540000C8042F20F72039B93420FDD00260C2722
:1095500084B90024204625B0BDE8F08F039B013379
:1095600003939AE7039B01330393B4E7039B01330F
:109570000393E8E707FB0650012100F0F5F80136F8
:10958000042E0446E4D101274FF0000842F20F797F
:10959000002CDED0AB8E286B04A9CDE9043710F087
:1095A000D7FDA98E286B10F021FECDF80C80039B0F
:1095B0004B4526DD2846002100F0D6F80136082E5E
:1095C000044605F10C05E3D10028C2D00123802612
:1095D000ADF8143004A900230E488DF8163040254C
:1095E000049610F0B5FD04A90A48049510F0B0FDEA
:1095F0003146084810F0FCFD0648294610F0F8FDF9
:10960000A8E7039B01330393D1E700BFC004002008
:1096100080050020000402402DE9F8430F4CDFF8DC
:109620004080DFF8409005460127002634F8021CF0
:1096300054F8060C10F0D4FD854206D02B46224685
:109640004146484624F030F900270136052E04F142
:109650000C04EBD13846BDE8F88300BF4A05002072
:10966000CC58030881F401082DE9F041A2B00DF0B7
:1096700053FE01210446072010F068FF04A8384D6E
:10968000FFF7D2FD00262F46B046BB8857F80C0BDB
:1096900002A90136CDE9023810F05AFD052EF4D1A9
:1096A00000264FF0010837467CB3AB882868029348
:1096B00002A9ADF80C808DF80E7010F049FDA98854
:1096C000286810F093FD0197019BB3F57A7F3EDB8C
:1096D0000120FFF7A1FFA9880446286810F088FD43
:1096E0000197019BB3F57A7F35DB0020FFF794FFEC
:1096F0000136002802A955F80C0B8DF80C7008BF34
:10970000002410F025FD052ECED104A8FFF7C0FDE2
:10971000CCB101231348ADF80C308026002302A9F8
:109720008DF80E304025029610F012FD0D4802957E
:1097300002A910F00DFD0B48314610F059FD094803
:10974000294610F055FD204622B0BDE8F081019B6E
:1097500001330193B8E7019B01330193C1E700BFD7
:10976000440500200004024038B50D4604468188B7
:10977000006810F035FD854207D0054905482B46A5
:10978000A21D24F091F8002038BD0120FCE700BFA5
:109790008070030881F401082DE9F3411FF082F87D
:1097A0002A4E2B4D2B4F3078002849D02A4B2B4C7A
:1097B000042200219E4613F8018B14F801CBE045EA
:1097C0001CBF03F801CC0146013AF4D131B1244861
:1097D000CDF800E004232E2105F09EF93B78012B03
:1097E0002ED9204B204C1B7822789A420DD0237022
:1097F00001231A461A4800942E2105F08DF91B4BBF
:1098000022781B481A7019F073FA2B7823B94FF499
:109810007A7028F003FCC6E7DFF85C8028F098FA3D
:10982000D8F80030984204460AD9124B00930C48ED
:10983000012302222E21643405F008F9C8F8004003
:109840002B78002BE3D00A20E3E700BF301D002077
:109850002D1D00202C1D0020E1050020E605002024
:1098600090090020E5050020E00500202E1D0020C5
:109870004C0704082B1D0020341D002010B5104B90
:109880001878A0B10F491048104CFDF72DF978B9A0
:109890000123237022780E4C002A14BF01220022DB
:1098A000227003D10B490C4823F0FEFF207810BD35
:1098B00004490A48FDF718F90028EBD10223E8E72C
:1098C000C21C0020381D0020C47003082C1D00207D
:1098D000301D0020DC70030881F40108D0700308FB
:1098E00073B5124E3478F4B9114D124912480194EF
:1098F000032300939622234628F0ACF80D2221463C
:109900002846FDF717F80C2310222E210B4800954E
:1099100005F09CF80A4B0B4918702A460A4823F0B8
:10992000C3FF0123337002B070BD00BFC21C002012
:10993000381D002001710308999700089009002044
:109940002F1D00201371030881F40108034B1878C0
:10995000034B1B780BB140F004007047C31C002080
:10996000001E0020044B1878044B1B78022B08BF04
:1099700040F00400704700BFC31C0020B51D00204C
:109980000120704738B50A4C0122104602212346B7
:109990001FF026FE012510232046A371A5801FF08D
:1099A000E7FA642028F03AFB024B1D7038BD00BF77
:1099B000461D0020001E00202DE9F04F3B4C0646BE
:1099C00085B00F46924699460F2223460421012076
:1099D0001FF006FE86B90223A37104236372D9F82F
:1099E0001030E6712672A6721B68C4F80B30204650
:1099F0000923A3801FF0BCFADFF8C0802C48D8F8F8
:109A00000050C5F1400B5F453A4628BF5A46B3188F
:109A100051462844CDE90223FCF7F2FE029A2A447B
:109A2000402AC8F8002005D0D9F81010039B096817
:109A3000994218D11E491F480292403DFCF7E0FEB2
:109A4000029A1A48A2803D441FF092FA00239D42D8
:109A5000C8F8003007DD16482A460AEB0B01FCF770
:109A6000CFFEC8F80050D9F810301A683E4496422C
:109A700018D104220025A2716272E5712572A572C7
:109A80001B680A48C4F80B300923A3801FF070FA42
:109A90004FF0FF3308480093012200682B4611461F
:109AA00026F024FC012005B0BDE8F08F461D002003
:109AB000B61D00204C1D0020B01D0020F81D002008
:109AC000F8B5194F01253D701FF098FC4FF4E130B7
:109AD00007F006FC154B1C7829462046FEF730FCA3
:109AE00000212046FEF75EFC114B1E7829463046C9
:109AF000FEF726FC00213046FEF754FC0A2028F031
:109B00008DFA29462046FEF74DFC02212046FEF73D
